:0400000007EF00F016
:100008004A8273ED05F071EF07F045EF04F0000E3A
:100018000001B96F000EB86F000E0001BB6F040E2F
:10002800BA6F000E0001BD6F640EBC6F26EC06F0BF
:10003800480E0001C96F6C0EE82EFED7C92FFCD7F9
:1000480000F0000E0001B96F0B0EB86F000E000132
:10005800BB6F030EBA6F000E0001BD6F640EBC6F5C
:1000680026EC06F0480E0001C96F6C0EE82EFED78C
:10007800C92FFCD700F0000E0001B96F020EB86F4F
:10008800000E0001BB6F040EBA6F000E0001BD6FB9
:10009800640EBC6F26EC06F0480E0001C96F6C0EAA
:1000A800E82EFED7C92FFCD700F0000E0001B96F6B
:1000B8000B0EB86F000E0001BB6F030EBA6F000E77
:1000C8000001BD6F640EBC6F26EC06F0480E0001FF
:1000D800C96F6C0EE82EFED7C92FFCD700F0000EB2
:1000E8000001B96F070EB86F000E0001BB6F030E59
:1000F800BA6F000E0001BD6F640EBC6F26EC06F0EF
:10010800480E0001C96F6C0EE82EFED7C92FFCD728
:1001180000F0000E0001B96F090EB86F000E000163
:10012800BB6F030EBA6F000E0001BD6F640EBC6F8B
:1001380026EC06F08F0E0001C96FDA0EE82EFED706
:10014800C92FFCD700F0000E0001B96F040EB86F7C
:10015800000E0001BB6F030EBA6F000E0001BD6FE9
:10016800640EBC6F26EC06F08F0E0001C96FDA0E24
:10017800E82EFED7C92FFCD700F01200000E0001B0
:10018800B96F000EB86F000E0001BB6F040EBA6F96
:10019800000E0001BD6F640EBC6F26EC06F03E0E2B
:1001A8000001C96FAF0EE82EFED7C92FFCD7000E8D
:1001B8000001B96F0B0EB86F000E0001BB6F030E84
:1001C800BA6F000E0001BD6F640EBC6F26EC06F01E
:1001D8003E0E0001C96FAF0EE82EFED7C92FFCD71F
:1001E800000E0001B96F020EB86F000E0001BB6F60
:1001F800040EBA6F000E0001BD6F640EBC6F26ECD2
:1002080006F03E0E0001C96FAF0EE82EFED7C92FCB
:10021800FCD7000E0001B96F0B0EB86F000E00017D
:10022800BB6F030EBA6F000E0001BD6F640EBC6F8A
:1002380026EC06F03E0E0001C96FAF0EE82EFED781
:10024800C92FFCD7000E0001B96F070EB86F000E5A
:100258000001BB6F030EBA6F000E0001BD6F640E84
:10026800BC6F26EC06F03E0E0001C96FAF0EE82EFB
:10027800FED7C92FFCD7000E0001B96F090EB86F61
:10028800000E0001BB6F030EBA6F000E0001BD6FB8
:10029800640EBC6F26EC06F07C0E0001C96F5F0E81
:1002A800E82EFED7C92FFCD7000E0001B96F040E47
:1002B800B86F000E0001BB6F030EBA6F000E00018D
:1002C800BD6F640EBC6F26EC06F07C0E0001C96F92
:1002D8005F0EE82EFED7C92FFCD71200000E0001D2
:1002E800B96F000EB86F000E0001BB6F040EBA6F35
:1002F800000E0001BD6F640EBC6F26EC06F0340ED4
:100308000001C96FF10EE82EFED7C92FFCD700D027
:10031800000E0001B96F0B0EB86F000E0001BB6F25
:10032800030EBA6F000E0001BD6F640EBC6F26ECA1
:1003380006F0340E0001C96FF10EE82EFED7C92F62
:10034800FCD700D0000E0001B96F020EB86F000E86
:100358000001BB6F040EBA6F000E0001BD6F640E82
:10036800BC6F26EC06F0340E0001C96FF10EE82EC2
:10037800FED7C92FFCD700D0000E0001B96F0B0EB5
:10038800B86F000E0001BB6F030EBA6F000E0001BC
:10039800BD6F640EBC6F26EC06F0340E0001C96F09
:1003A800F10EE82EFED7C92FFCD700D0000E0001B1
:1003B800B96F070EB86F000E0001BB6F030EBA6F5E
:1003C800000E0001BD6F640EBC6F26EC06F0340E03
:1003D8000001C96FF10EE82EFED7C92FFCD700D057
:1003E800000E0001B96F090EB86F000E0001BB6F57
:1003F800030EBA6F000E0001BD6F640EBC6F26ECD1
:1004080006F0680E0001C96FE40EE82EFED7C92F6A
:10041800FCD700F0000E0001B96F040EB86F000E93
:100428000001BB6F030EBA6F000E0001BD6F640EB2
:10043800BC6F26EC06F0680E0001C96FE40EE82ECA
:10044800FED7C92FFCD700F01200000E0001B96FCB
:10045800000EB86F000E0001BB6F040EBA6F000EDD
:100468000001BD6F640EBC6F26EC06F02B0E000178
:10047800C96F330EE82EFED7C92FFCD700D0000E67
:100488000001B96F0B0EB86F000E0001BB6F030EB1
:10049800BA6F000E0001BD6F640EBC6F26EC06F04B
:1004A8002B0E0001C96F330EE82EFED7C92FFCD7DB
:1004B80000D0000E0001B96F020EB86F000E0001E7
:1004C800BB6F040EBA6F000E0001BD6F640EBC6FE7
:1004D80026EC06F02B0E0001C96F330EE82EFED76E
:1004E800C92FFCD700D0000E0001B96F0B0EB86FF2
:1004F800000E0001BB6F030EBA6F000E0001BD6F46
:10050800640EBC6F26EC06F02B0E0001C96F330E8B
:10051800E82EFED7C92FFCD700D0000E0001B96F16
:10052800070EB86F000E0001BB6F030EBA6F000E06
:100538000001BD6F640EBC6F26EC06F02B0E0001A7
:10054800C96F330EE82EFED7C92FFCD700D0000E96
:100558000001B96F090EB86F000E0001BB6F030EE2
:10056800BA6F000E0001BD6F640EBC6F26EC06F07A
:10057800550E0001C96F690EE82EFED7C92FFCD7AA
:10058800000E0001B96F040EB86F000E0001BB6FBA
:10059800030EBA6F000E0001BD6F640EBC6F26EC2F
:1005A80006F0550E0001C96F690EE82EFED7C92F57
:1005B800FCD71200000E0001B96F000EB86F000ED4
:1005C8000001BB6F040EBA6F000E0001BD6F640E10
:1005D800BC6F26EC06F0210E0001C96F760EE82EDE
:1005E800FED7C92FFCD700F0000E0001B96F0B0E23
:1005F800B86F000E0001BB6F030EBA6F000E00014A
:10060800BD6F640EBC6F26EC06F0210E0001C96FA9
:10061800760EE82EFED7C92FFCD700F0000E000199
:10062800B96F020EB86F000E0001BB6F040EBA6FEF
:10063800000E0001BD6F640EBC6F26EC06F0210EA3
:100648000001C96F760EE82EFED7C92FFCD700F03F
:10065800000E0001B96F0B0EB86F000E0001BB6FE2
:10066800030EBA6F000E0001BD6F640EBC6F26EC5E
:1006780006F0210E0001C96F760EE82EFED7C92FAD
:10068800FCD700F0000E0001B96F070EB86F000E1E
:100698000001BB6F030EBA6F000E0001BD6F640E40
:1006A800BC6F26EC06F0210E0001C96F760EE82E0D
:1006B800FED7C92FFCD700F0000E0001B96F090E54
:1006C800B86F000E0001BB6F030EBA6F000E000179
:1006D800BD6F640EBC6F26EC06F0410E0001C96FB9
:1006E800EE0EE82EFED7C92FFCD700F0000E000151
:1006F800B96F040EB86F000E0001BB6F030EBA6F1E
:10070800000E0001BD6F640EBC6F26EC06F0410EB2
:100718000001C96FEE0EE82EFED7C92FFCD700F0F6
:100728001200000E0001B96F000EB86F000E000134
:10073800BB6F040EBA6F000E0001BD6F640EBC6F74
:1007480026EC06F0170E0001C96FB90EE82EFED789
:10075800C92FFCD7000E0001B96F0B0EB86F000E41
:100768000001BB6F030EBA6F000E0001BD6F640E6F
:10077800BC6F26EC06F0170E0001C96FB90EE82E03
:10078800FED7C92FFCD7000E0001B96F020EB86F53
:10079800000E0001BB6F040EBA6F000E0001BD6FA2
:1007A800640EBC6F26EC06F0170E0001C96FB90E77
:1007B800E82EFED7C92FFCD7000E0001B96F0B0E2B
:1007C800B86F000E0001BB6F030EBA6F000E000178
:1007D800BD6F640EBC6F26EC06F0170E0001C96FE2
:1007E800B90EE82EFED7C92FFCD7000E0001B96F4D
:1007F800070EB86F000E0001BB6F030EBA6F000E34
:100808000001BD6F640EBC6F26EC06F0170E0001E8
:10081800C96FB90EE82EFED7C92FFCD7000E00010C
:10082800B96F090EB86F000E0001BB6F030EBA6FE7
:10083800000E0001BD6F640EBC6F26EC06F02E0E94
:100848000001C96F730EE82EFED7C92FFCD7000E22
:100858000001B96F040EB86F000E0001BB6F030EE4
:10086800BA6F000E0001BD6F640EBC6F26EC06F077
:100878002E0E0001C96F730EE82EFED7C92FFCD7C4
:100888001200C7C0C9F0C8C0CAF00001CA51000AA6
:10089800D8A412000001C951010AD8B40BEF00F026
:1008A800030AD8B46BD4010AD8B418D5070AD8B447
:1008B800CCD5010AD8B47ED6030AD8A4120031D701
:1008C8009E96C6AEE9D0C69E000E1E6E000E106E35
:1008D800000E116E120005B2120003C010F004C021
:1008E80011F003C0D9FF04C0DAFFDF501D6E20EEFF
:1008F80001F00350D9260450DA22DECF12F0DDCF02
:1009080013F0060E0326000E0422320E031808E127
:10091800000E0418D8A404D02C0E036E000E046E2A
:1009280005900150031804E102500418D8B4058258
:10093800C580020E1E6E1200C582020E1E6E1200C7
:10094800C5AC05D0072A040E67EC08F01200D89051
:100958003330356E3230346E3450C96E32A003D025
:100968000B0E1E6E1200030E1E6E1200C5AC05D0D3
:10097800072A040E67EC08F01200C58232C034F072
:1009880033C035F035C034F0356A060E3416000E23
:100998003516F00E3410326E3550336E3280010E3B
:1009A8001B6E020E1E6E12001B04D8B41AD012C0A1
:1009B800D9FF13C0DAFFDECF32F0DDCF33F020EEFF
:1009C80003F01250D9261350DA22DECF0EF0DDCF15
:1009D8000FF020EE02F01250D9261350DA22DF5021
:1009E8001C6E32C0C9FF32A003D0050E1E6E120065
:1009F800030E1E6E1200C5AC06D0072AC59C050E54
:100A080067EC08F012001C061C28D8A40ED0060EAD
:100A18001226000E13221D2E04D0000E67EC08F0DB
:100A28001200C582020E1E6E12000EC0D9FF0FC042
:100A3800DAFFDF50C96E0E4A0F2A1200C5AC06D085
:100A4800072A040E67EC08F0C59C1200C586080E3C
:100A58001E6E1200080E1E6EC58612000EC0D9FF4B
:100A68000FC0DAFFC9CFDFFF0E4A0F2A010E1C5E46
:100A7800D8B404D0C59A060E1E6E03D0C58A32ECCF
:100A880008F0C5881200000E67EC08F01200072A6B
:100A9800060E67EC08F012001E50000AD8B41BD7E7
:100AA800010AD8B449D7030AD8B47ED7010AD8B402
:100AB800A2D7070AD8B4E7D7010AD8B4BFD7030A20
:100AC800D8B4C8D7010AD8B4DED70F0AD8B4C6D765
:100AD800020AD8B435D7010AD8B448D7D8D70600FF
:100AE800FACF36F0FBCF37F0E9CF38F0EACF39F05C
:100AF800E1CF3AF0E2CF3BF0D9CF3CF0DACF3DF08E
:100B0800F3CF3EF0F4CF3FF0F6CF40F0F7CF41F00F
:100B1800F8CF42F0F5CF43F04AC044F04BC045F05F
:100B28004CC046F04DC047F09DBC9EAC04D075EC5F
:100B380008F09E9C61D0F2BAF2A404D06EEC08F0E2
:100B4800F2945AD0A0B8A1A804D073EC08F0A198E8
:100B580053D0A0B6A1A604D074EC08F0A1964CD04E
:100B68009DB69EA604D064EC04F09E9645D09DB830
:100B78009EA804D0EEEC07F09E983ED09DBA9EAA9F
:100B880004D05EEC08F09E9A37D09DB09EA004D0A9
:100B98006DEC08F09E9030D0F2B6F2A006D06FEC63
:100BA80008F081CF48F0F29027D0F2B8F2A204D032
:100BB80072EC08F0F29220D0F0B6F0A004D071ECFC
:100BC80008F0F09019D0F0B8F0A204D070EC08F05A
:100BD800F09212D0A0B0A1A002D0A1900DD0A0B2E6
:100BE800A1A204D005EC08F0A19206D09DB29EA265
:100BF80003D06CEC08F09E9247C04DF046C04CF014
:100C080045C04BF044C04AF043C0F5FF42C0F8FF6E
:100C180041C0F7FF40C0F6FF3FC0F4FF3EC0F3FFFE
:100C28003DC0DAFF3CC0D9FF3BC0E2FF3AC0E1FF5C
:100C380039C0EAFF38C0E9FF37C0FBFF36C0FAFF0A
:100C48004A921100000E0001C26F000EC16F000E23
:100C58000001C46F000EC36FD8900001B835D96E7B
:100C68000001B935DA6EA00ED926000EDA22DECFE1
:100C7800C5F0DDCFC6F0BAC0BEF0C5C0BFF0C6C073
:100C8800C0F00001BE2B04D00001C035C033BF3313
:100C98000001BE2FF9D7BFC0C5F0C0C0C6F0818023
:100CA800050E0001C5190001C611D8B400F0040EE4
:100CB8000001C5190001C611D8B400F0030E0001E7
:100CC800C5190001C6110001C5510001C327000163
:100CD800C6510001C4238190050E0001C519000109
:100CE800C611D8B400F0040E0001C5190001C611E0
:100CF800D8B400F0030E0001C5190001C6110001A7
:100D0800C5510001C3270001C6510001C42308D002
:100D18000001180EC327FC0EC4230001C14BC22BCF
:100D2800190E0001C327000EC4230001C4BF08D058
:100D3800E80E0001C35D030E0001C459D8B0E8D71E
:100D48000001BC510001C15D0001C251800A0001CF
:100D5800BE6F0001BD51800A0001BE59D8B0120013
:100D68009ED70001BB6FF00E8316F00E9516959A6C
:100D78009598959C8C9A8C988C9C49EC08F0300E30
:100D880094EC07F0050E19EC08F0300E94EC07F01F
:100D9800010E19EC08F0320E94EC07F0D1EC07F0D4
:100DA8000009D8A4FBD7D1EC07F00009D8A4FBD7D9
:100DB8000001BB5194EC07F0D1EC07F00009D8A46E
:100DC800FBD7080E94EC07F0D1EC07F00009D8A483
:100DD800FBD70F0E94EC07F0D1EC07F00009D8A46C
:100DE800FBD7010E94EC07F0D1EC07F00009D8A46A
:100DF800FBD7040E94EC07F0D1EC07F00009D8A457
:100E0800FBD7800E42EC07F0120052EC08F081A2EA
:100E180007D0000E0001C86F010EC76F09EC00F083
:100E280081A407D0000E0001C86F020EC76F09EC3D
:100E380000F081A607D0000E0001C86F030EC76F2F
:100E480009EC00F081A807D0000E0001C86F040E5D
:100E5800C76F09EC00F081AA07D0000E0001C86F27
:100E6800050EC76F09EC00F081ACD1D7000E000168
:100E7800C86F060EC76F09EC00F0C9D7496EF00EAF
:100E88009516F00E831649500001B86FB96B000132
:100E9800B88F040E0001BA6F0001B935B933B83301
:100EA8000001BA2FF9D70001B8510F0B83128C9AA1
:100EB8008C9863EC08F08C8C63EC08F08C9CF00E3A
:100EC800831649500F0B831263EC08F08C8C63EC8B
:100ED80008F08C9C0F0E951212004C0EF66E100E38
:100EE800F76E000EF86E00EEA0F010EE18F0090094
:100EF800F5CFEEFFE550E150FAE100EE60F0400E6C
:100F0800EE6AE806FDE100EE01F0330EEE6AE8064F
:100F1800FDE14A904A92000EF86E000109EF07F0D1
:100F2800496EF00E9516F00E831649380F0B0F0B0D
:100F380083128C9A8C9863EC08F08C8C63EC08F024
:100F48008C9CF00E831649500F0B831263EC08F04B
:100F58008C8C63EC08F08C9C0F0E95121200959EF9
:100F68008C8E280EB5EC06F0D1EC07F00009D8A459
:100F7800FBD70F0E94EC07F0D1EC07F00009D8A4CA
:100F8800FBD7060E94EC07F0D1EC07F00009D8A4C3
:100F9800FBD7000E42EC07F012008C8A8C9863ECA9
:100FA80008F08C8C63EC08F083A60AD08C9C63EC68
:100FB80008F08C8C63EC08F08C9C8C9A010E120063
:100FC8008C9C63EC08F08C8C63EC08F08C9C8C9AFD
:100FD800000E1200080E226012D02350010D920E4E
:100FE800F324D96E000EF420DA6EDF50AD6E232A9A
:100FF800070E236402D0000E236E222A12009D9849
:1010080012000950B36E08C0B2FF14501510D8B4BE
:10101800120001D812000500FA6E1450FD6E15502A
:10102800FE6EF850FF6EFA5012000001B86F0D0EF8
:10103800496EFC0EE82EFED7492EFCD70001B82FCA
:10104800F6D71200B93B5E3834353832662FBD2CDE
:101058003A2ADC279F2582238421A31F060E122605
:10106800000E13221D2E03D0040E1E6E1200010E58
:101078001E6E12007E0E936E000E966E000E926E1D
:10108800C180C182C184C1861200750E496EE10E0D
:10109800E82EFED7492EFCD700F012003EEC08F0EF
:1010A80059EC08F0B3EC07F01200600ED36E000E96
:1010B8009B6E1200ABA21200AB9EAB8E1200060E06
:1010C800E82EFED71200C584000E1E6E1200120014
:1010D8001200120012001200120012001200120078
:0410E80012001200E0
:020000040020DA
:08000000FFFFFFFFFFFFFFFF00
:020000040030CA
:0E000000340E181EFF8080FF0FC00FE00F406F
:00000001FF
