:0400000007EF00F016
:0A0008004A8229ED0EF096EF14F085
:1008000000010000000A00000064000000E803008E
:100810000010270000A086010040420F008096983B
:100820000000E1F50500CA9A3B00803F002041002E
:10083000C842007A44401C4650C347247449971864
:100840004BBCBE4C6B6E4E03155079AD60F34971D5
:1008500000803FCDCC3DD7233C12833AB7D138C678
:100860002737388635C0D633CC2B32708930E7DB5A
:100870002EE53C1E42A20D252E3066256320000089
:10088000860E0001966F000E0001976F75EF08F05D
:10089000250E0001A919D8B408D082C0D9FF83C0A1
:1008A000DAFFA9C0DFFF72EF08F0000E0001996FB8
:1008B000000E986F84C0F6FF85C0F7FF0800F55062
:1008C0002E0AD8A434D00001998D0001844B852BC9
:1008D000000E0001A86F000EA76F1ED0A7C024F065
:1008E000A8C025F0000E276E0A0E266EF5EC14F057
:1008F00084C0F6FF85C0F7FF0800F5502426000EDF
:100900002522D00E24240001A76FFF0E2520000110
:10091000A86F0001844B852B84C0F6FF85C0F7FFCC
:100920000800F5502CEC15F0D8A055D0D7D7000E04
:100930000001A86F000EA76F000199894CD000013B
:1009400099855FD00001A7510001A811D8B41FD02C
:10095000000194510001A75D000195510001A859C3
:10096000D8B015D0A7C094F0A8C095F010D092C010
:10097000D9FF93C0DAFF82C0E1FF83C0E2FFDFCF7F
:10098000E7FF0001924B932B0001824B832B000168
:100990009407D8A0950700019429E9E10001952961
:1009A000D8B4A3D3E4D796C0D9FF97C0DAFFDF50FD
:1009B0000001A96F020E00019627000E9723A90ED1
:1009C0000001926F000E0001936F000E0001956F01
:1009D000010E946FB7D784C0F6FF85C0F7FF000102
:1009E000844B852B0800F5CFA9F00001A951000A1E
:1009F000D8B48AD3630AD8B4D6D7050AD8B49FD757
:100A0000DED7070E00019915D8B417D3000199A9B4
:100A100005D0000E0001A86F060EA76F96C0D9FF83
:100A200097C0DAFFDECFA4F0DECFA5F0DDCFA6F0D1
:100A3000030E00019627000E97230001A6AF11D0E8
:100A4000A4C016F0A5C017F0A6C018F008EC15F069
:100A500016C0A4F017C0A5F018C0A6F0030E000140
:100A60009813000E00019F6F000E9E6F0001A451AD
:100A70000001A5110001A611D8B491D0820E000189
:100A8000896FFF0E00018A6FA4C08BF0A5C08CF0A7
:100A9000A6C08DF0A7C08EF0100E06D00001D89031
:100AA0008E338D338C338B33E82EF8D700018B5186
:100AB0000001892500019E6F000E00018A210001BE
:100AC0009F6F00019E07D8A09F079EC024F09FC083
:100AD00025F0000E276E030E266EF5EC14F024C0F0
:100AE0009EF025C09FF09EC01CF09FC01DF0000E20
:100AF0001F6E0A0E1E6EB2EC12F01CC09EF01DC0DE
:100B00009FF000019FAF04D000019E07D8A09F076F
:100B100000019E5100088BEC08F066C0A0F067C091
:100B2000A1F068C0A2F0A0C02AF0A1C02BF0A2C022
:100B30002CF0A4C02DF0A5C02EF0A6C02FF0ABEC79
:100B400010F02AC0A0F02BC0A1F02CC0A2F0A0C0D1
:100B500016F0A1C017F0A2C018F0000E196E800E9A
:100B60001A6E3F0E1B6E6AEC12F0D8B005D0000171
:100B70009E07D8A09F0713D0A0C016F0A1C017F001
:100B8000A2C018F0000E196E200E1A6E410E1B6ED8
:100B90006AEC12F0D8A003D000019E4B9F2B0001FD
:100BA000A8BF08D00001A8511DE10D0E0001A75DEE
:100BB000D8B018D0A4C070F0A5C071F0A6C072F073
:100BC0000001A751D6EC0BF066C073F067C074F05B
:100BD00068C075F0A2EC0AF070C0A4F071C0A5F076
:100BE00072C0A6F000019FBF08D000019F512AE10A
:100BF0000A0E00019E5DD8B025D00001A45100016D
:100C0000A5110001A611D8B45FD0A4C06DF0A5C095
:100C10006EF0A6C06FF0DCEC0EF000016D5100012B
:100C20006E1100016F1100017011D8A44DD00001A8
:100C30009FBF4AD000019F5105E1020E00019E5D59
:100C4000D8A042D0A0C016F0A1C017F0A2C018F0E2
:100C5000700E196E890E1A6E400E1B6E6AEC12F041
:100C6000D8B003D00001F70E02D00001F80E9E2785
:100C7000FF0E9F2300019E518BEC08F066C0A0F090
:100C800067C0A1F068C0A2F0A4C016F0A5C017F01C
:100C9000A6C018F0A0C019F0A1C01AF0A2C01BF0A5
:100CA0007EEC0FF016C09AF017C09BF018C09CF0B5
:100CB00019C09DF0000E0001A46F000E0001A56F89
:100CC000000E0001A66F33D0A4C06DF0A5C06EF079
:100CD000A6C06FF0DCEC0EF06DC09AF06EC09BF019
:100CE0006FC09CF070C09DF0A4C07CF0A5C07DF0EA
:100CF000A6C07EF09AC01EF09BC01FF09CC020F0E2
:100D00009DC021F0A0EC13F01EC07FF01FC080F04A
:100D100020C081F0F7EC13F07CC0A4F07DC0A5F0FA
:100D20007EC0A6F0000E00019F6F000E9E6F010EA8
:100D30000001A96F0A0E0001A919D8B41ED0000144
:100D4000A951040D010EF324F66E080EF420F76E7F
:100D50000900F55000019A5D0900F55000019B590A
:100D60000900F55000019C590900F55000019D59FA
:100D7000D8A003D00001A92BDDD7030E00019815E0
:100D80000001896F000E0001991500018A6F0001B2
:100D9000895100018A11D8B452D082C0D9FF83C0D2
:100DA000DAFF2D0E48D09AC016F09BC017F09CC0F9
:100DB00018F09DC019F00001A951040D010EF32493
:100DC000F66E080EF420F76E0900F5CF1AF0090050
:100DD000F5CF1BF00900F5CF1CF00A00F5CF1DF090
:100DE000F4EC12F016C0A0F017C0A1F018C0A2F0E9
:100DF00019C0A3F0A0C016F0A1C017F0A2C018F04F
:100E0000A3C019F00A0E1A6E000E1B6E000E1C6EA7
:100E1000000E1D6E6DEC13F016C0A0F017C0A1F00F
:100E200018C0A2F019C0A3F00001A051300F82C079
:100E3000D9FF83C0DAFFDF6E0001824B832B0001F4
:100E4000A9070001A929D8B40ED0ADD782C0D9FF17
:100E500083C0DAFF300EDF6E0001824B832B00016E
:100E60009E07D8A09F0700019FBF07D000019F5198
:100E7000EDE100019E05D8B0E9D70001A8BF0CD074
:100E80000001A85105E1090E0001A75DD8A004D01A
:100E9000080E0001A96F02D0A7C0A9F00001A95156
:100EA0000001A75F000E0001A9BFFF0E0001A85BB3
:100EB0000001A9510001D8B409D082C0D9FF83C074
:100EC000DAFF2E0EDF6E0001824B832B0001A95149
:100ED0008BEC08F066C08FF067C090F068C091F0AE
:100EE000A4C02DF0A5C02EF0A6C02FF08FC02AF010
:100EF00090C02BF091C02CF0ABEC10F02AC06DF03C
:100F00002BC06EF02CC06FF0DCEC0EF06DC09AF0D0
:100F10006EC09BF06FC09CF070C09DF073D09AC003
:100F200016F09BC017F09CC018F09DC019F000018E
:100F3000A951040D010EF324F66E080EF420F76E8D
:100F40000900F5CF1AF00900F5CF1BF00900F5CF25
:100F50001CF00A00F5CF1DF0F4EC12F016C0A0F062
:100F600017C0A1F018C0A2F019C0A3F0A0C016F0DD
:100F7000A1C017F0A2C018F0A3C019F00A0E1A6E93
:100F8000000E1B6E000E1C6E000E1D6E6DEC13F03D
:100F900016C0A0F017C0A1F018C0A2F019C0A3F0AD
:100FA0000001A051300F82C0D9FF83C0DAFFDF6E8D
:100FB0000001824B832B9AC016F09BC017F09CC097
:100FC00018F09DC019F00001A951040D010EF32481
:100FD000F66E080EF420F76E0900F5CF1AF009003E
:100FE000F5CF1BF00900F5CF1CF00A00F5CF1DF07E
:100FF0006DEC13F016C09AF017C09BF018C09CF06F
:1010000019C09DF00001A9070001A929D8B40ED08C
:1010100086D782C0D9FF83C0DAFF300EDF6E0001B1
:10102000824B832B0001A707D8A0A8070001A75176
:101030000001A811D8B459D0ECD70001A751000184
:10104000A811D8A40DD000019A5100019B110001F4
:101050009C1100019D11D8A403D00001A74BA82B1F
:10106000800E0001A9BF7F0E0001896F0001A7510A
:101070000001A95D0001A851800A00018959D8B07A
:1010800003D0A7C0A9F018D00001A851800A000120
:10109000896F0001A9510001A75D800E0001A9BF61
:1010A0007F0E00018959D8B007D00001A951000175
:1010B000A76FA86BA7BFA807030E00019815000132
:1010C000896F000E0001991500018A6F0001895196
:1010D00000018A11D8B409D082C0D9FF83C0DAFFD9
:1010E0002D0EDF6E0001824B832B84C0F6FF85C07E
:1010F000F7FF0001844B852B0800F5CFA9F0000114
:10110000A951D8A448EF04F082C0D9FF83C0DAFF08
:10111000000EDF6E120000016C6F00016CAF0AD18F
:1011200000016C6D00016C51800A120FD8A094D0A0
:10113000000E276E030E266E000E1F6E0A0E1E6E28
:10114000000E196E640E186E00016C51166E176A4F
:1011500016BE170635EC13F016C01CF017C01DF0B4
:10116000B2EC12F0090E1C24246E000E1D20256E18
:10117000F5EC14F0500E2424F66E080E2520F76EC0
:101180000900F5CF2DF00900F5CF2EF00A00F5CFBC
:101190002FF0000E1F6E640E1E6E00016C511C6E4F
:1011A0001D6A1CBE1D06B2EC12F0120E1C24246E29
:1011B000000E1D20256E000E276E030E266EF5EC28
:1011C00014F0500E2424F66E080E2520F76E090048
:1011D000F5CF2AF00900F5CF2BF00A00F5CF2CF05F
:1011E000ABEC10F02AC069F02BC06AF02CC06BF099
:1011F00069C02AF06AC02BF06BC02CF0000E276E7D
:10120000030E266E000E196E0A0E186E00016C5148
:10121000166E176A16BE170635EC13F016C024F0CA
:1012200017C025F0F5EC14F0500E2424F66E080ECD
:101230002520F76E0900F5CF2DF00900F5CF2EF02F
:101240000A00F5CF2FF0ABEC10F02AC066F02BC0EF
:1012500067F02CC068F0120000016C51800A750F15
:10126000D8A055D0000E1F6E0A0E1E6E00016C51E4
:101270001C6E1D6A1CBE1D06B2EC12F0090E1C2469
:10128000246E000E1D20256E000E276E030E266EA6
:10129000F5EC14F0500E2424F66E080E2520F76E9F
:1012A0000900F5CF2AF00900F5CF2BF00A00F5CFA1
:1012B0002CF0000E276E030E266E000E196E0A0E1D
:1012C000186E00016C51166E176A16BE170635ECC3
:1012D00013F016C024F017C025F0F5EC14F0500EF2
:1012E0002424F66E080E2520F76E0900F5CF2DF0A8
:1012F0000900F5CF2EF00A00F5CF2FF0ABEC10F07F
:101300002AC066F02BC067F02CC068F01200000104
:101310006C51030D500EF324F66E080EF420F76E98
:101320000900F5CF66F00900F5CF67F00A00F5CFA8
:1013300068F0120000016C51800A120FD8A094D0FE
:10134000000E276E030E266E000E1F6E0A0E1E6E16
:10135000000E196E640E186E00016C51166E176A3D
:1013600016BE170635EC13F016C01CF017C01DF0A2
:10137000B2EC12F0090E1C24246E000E1D20256E06
:10138000F5EC14F0290E2424F66E080E2520F76ED5
:101390000900F5CF2DF00900F5CF2EF00A00F5CFAA
:1013A0002FF0000E1F6E640E1E6E00016C511C6E3D
:1013B0001D6A1CBE1D06B2EC12F0120E1C24246E17
:1013C000000E1D20256E000E276E030E266EF5EC16
:1013D00014F0290E2424F66E080E2520F76E09005D
:1013E000F5CF2AF00900F5CF2BF00A00F5CF2CF04D
:1013F000ABEC10F02AC069F02BC06AF02CC06BF087
:1014000069C02AF06AC02BF06BC02CF0000E276E6A
:10141000030E266E000E196E0A0E186E00016C5136
:10142000166E176A16BE170635EC13F016C024F0B8
:1014300017C025F0F5EC14F0290E2424F66E080EE2
:101440002520F76E0900F5CF2DF00900F5CF2EF01D
:101450000A00F5CF2FF0ABEC10F02AC066F02BC0DD
:1014600067F02CC068F0120000016C51800A750F03
:10147000D8A055D0000E1F6E0A0E1E6E00016C51D2
:101480001C6E1D6A1CBE1D06B2EC12F0090E1C2457
:10149000246E000E1D20256E000E276E030E266E94
:1014A000F5EC14F0290E2424F66E080E2520F76EB4
:1014B0000900F5CF2AF00900F5CF2BF00A00F5CF8F
:1014C0002CF0000E276E030E266E000E196E0A0E0B
:1014D000186E00016C51166E176A16BE170635ECB1
:1014E00013F016C024F017C025F0F5EC14F0290E07
:1014F0002424F66E080E2520F76E0900F5CF2DF096
:101500000900F5CF2EF00A00F5CF2FF0ABEC10F06C
:101510002AC066F02BC067F02CC068F012000001F2
:101520006C51030D290EF324F66E080EF420F76EAD
:101530000900F5CF66F00900F5CF67F00A00F5CF96
:1015400068F0120072C076F00001776B786B0001D2
:1015500071350001763701E3778100017651000192
:101560007B6F75C076F00001776B786B0001743586
:101570000001763701E377810001765100017A6F2F
:1015800000017B510001D8B411D000017A51000153
:101590007B5DD8B012D000017B51000800017A2594
:1015A0000001766F180E0001766507D073C070F0E9
:1015B00074C071F075C072F0120000017A51000120
:1015C000D8B411D000017B5100017A5DD8B012D09F
:1015D00000017A51000800017B250001766F180E8A
:1015E0000001766507D070C070F071C071F072C0F4
:1015F00072F01200060E0001796F000172AF02D086
:101600000001798F000175AF02D00001798D0001D2
:10161000718FFF0E00017017FF0E00017117000E91
:10162000000172170001748FFF0E00017317FF0E87
:1016300000017417000E0001751700017A510001B6
:101640007B5DD8B025D00001D890733774377537DB
:1016500000017A0700017B5100017A19D8B411D03A
:101660000001790779C076F0070E00017617D8B42B
:1016700008D0E9D70001D89072337133703300017C
:101680007B2B00017A5100017B19D8B42BD0F2D703
:1016900000017B5100017A5DD8B024D00001D890C0
:1016A00070377137723700017B0700017B510001F1
:1016B0007A19D8B411D00001790779C076F0070EF5
:1016C00000017617D8B408D0E9D70001D890753357
:1016D0007433733300017A2B00017A5100017B19B6
:1016E000D8A4F3D7000179AF12D0FF0E0001701B10
:1016F000FF0E0001711BFF0E0001721B010E0001A5
:101700007027000E00017123000E000172230001FA
:1017100079AD12D0FF0E0001731BFF0E0001741B88
:10172000FF0E0001751B010E00017327000E000162
:101730007423000E00017523000E0001796F000173
:1017400070510001732700017151000174230001E1
:10175000725100017523000175AF15D0FF0E000115
:10176000731BFF0E0001741BFF0E0001751B010EA1
:1017700000017327000E00017423000E0001752381
:10178000010E0001796F73C016F074C017F075C0B8
:1017900018F07BC019F079C01AF0C1EC11F016C036
:1017A00070F017C071F018C072F0120000016F6F76
:1017B0006D0E00016F659FD0000E276E030E266E22
:1017C000000E1F6E0A0E1E6E000E196E640E186E4D
:1017D0006FC016F0176A35EC13F016C01CF017C076
:1017E0001DF0B2EC12F0090E1C24246E000E1D2018
:1017F000256EF5EC14F0500E2424F66E080E25200C
:10180000F76E0900F5CF2DF00900F5CF2EF00A0094
:10181000F5CF2FF0000E1F6E640E1E6E6FC01CF011
:101820001D6AB2EC12F0120E1C24246E000E1D2054
:10183000256E000E276E030E266EF5EC14F0500E8A
:101840002424F66E080E2520F76E0900F5CF2AF045
:101850000900F5CF2BF00A00F5CF2CF0ABEC10F01F
:101860002AC06CF02BC06DF02CC06EF0000E276EFD
:10187000030E266E000E196E0A0E186E6FC016F05B
:10188000176A35EC13F016C024F017C025F0F5ECFC
:1018900014F0500E2424F66E080E2520F76E090071
:1018A000F5CF2DF00900F5CF2EF00A00F5CF2FF07F
:1018B0006CC02AF06DC02BF06EC02CF0ABEC10F0B9
:1018C0002AC069F02BC06AF02CC06BF069C02AF006
:1018D0006AC02BF06BC02CF0000E2D6E000E2E6E29
:1018E0003F0E2F6EABEC10F02AC066F02BC067F0F5
:1018F0002CC068F012000A0E00016F6563D0000E64
:10190000276E030E266E000E196E0A0E186E6FC03B
:1019100016F0176A35EC13F016C024F017C025F046
:10192000F5EC14F0500E2424F66E080E2520F76E08
:101930000900F5CF2DF00900F5CF2EF00A00F5CF04
:101940002FF0000E1F6E0A0E1E6E6FC01CF01D6A77
:10195000B2EC12F0090E1C24246E000E1D20256E20
:10196000000E276E030E266EF5EC14F0500E2424A4
:10197000F66E080E2520F76E0900F5CF2AF0090053
:10198000F5CF2BF00A00F5CF2CF0ABEC10F02AC00D
:101990006CF02BC06DF02CC06EF06CC02AF06DC0E6
:1019A0002BF06EC02CF0000E2D6E000E2E6E3F0E32
:1019B0002F6EABEC10F02AC066F02BC067F02CC085
:1019C00068F0120000016F51030D500EF324F66E03
:1019D000080EF420F76E0900F5CF2AF00900F5CFC4
:1019E0002BF00A00F5CF2CF0000E2D6E000E2E6E9F
:1019F0003F0E2F6EABEC10F02AC066F02BC067F0E4
:101A00002CC068F012009E96C6AE00D1C69E000E95
:101A1000416E000E0001BF6F000E0001C06F12008A
:101A20000001B7B31200B5C0BFF0B6C0C0F0B5C07A
:101A3000D9FFB6C0DAFFDF50406E000120EE01F0A2
:101A4000B551D926B651DA22DECF3BF0DDCF3CF0DE
:101A5000060E0001B527000EB623E40E0001B519ED
:101A60000BE1000E0001B619D8A406D0DE0E00016D
:101A7000B56F000E0001B66F0001B7910001B351C0
:101A80000001B51908E10001B4510001B619D8A44C
:101A900002D00001B783C580020E416E1200C582DC
:101AA000020E416E1200C5AC06D00001B92B040E27
:101AB00084EC15F01200D8904930026E4830016E67
:101AC0000150C96E48A003D00B0E416E1200030EE8
:101AD000416E1200C5AC06D00001B92B040E84EC97
:101AE00015F01200C58248C001F049C002F002C0E2
:101AF00001F0026A060E0116000E0216F00E011029
:101B0000486E0250496E4880010E3E6E020E416ED4
:101B100012003E04D8B41AD03BC0D9FF3CC0DAFF53
:101B2000DECF48F0DDCF49F020EE03F03B50D92660
:101B30003C50DA22DECFBDF0DDCFBEF020EE02F069
:101B40003B50D9263C50DA22DF503F6E48C0C9FFD7
:101B500048A003D0050E416E1200030E416E120024
:101B6000C5AC07D00001B92BC59C050E84EC15F05F
:101B700012003F063F28D8A40ED0060E3B26000ECA
:101B80003C22402E04D0000E84EC15F01200C582D9
:101B9000020E416E1200BDC0D9FFBEC0DAFFDF5099
:101BA000C96E0001BD4BBE2B1200C5AC07D00001B1
:101BB000B92B040E84EC15F0C59C1200C586080EE6
:101BC000416E1200080E416EC5861200BDC0D9FFDD
:101BD000BEC0DAFFC9CFDFFF0001BD4BBE2B010E37
:101BE0003F5ED8B404D0C59A060E416E03D0C58AB4
:101BF00047EC15F0C5881200000E84EC15F01200B9
:101C00000001B92B060E84EC15F012004150000AB9
:101C1000D8B406D7010AD8B442D7030AD8B479D7C2
:101C2000010AD8B49DD7070AD8B4E6D7010AD8B4B8
:101C3000BCD7030AD8B4C6D7010AD8B4DDD70F0A77
:101C4000D8B4C4D7020AD8B42ED7010AD8B442D720
:101C5000D7D70600FACF03F0FBCF04F0E9CF05F0A9
:101C6000EACF06F0E1CF07F0E2CF08F0D9CF09F0D4
:101C7000DACF0AF0F3CF0BF0F4CF0CF0F6CF0DF083
:101C8000F7CF0EF0F8CF0FF0F5CF10F04AC011F0FB
:101C90004BC012F04CC013F04DC014F09DBC9EAC74
:101CA00004D092EC15F09E9C61D0F2BAF2A404D05C
:101CB0008BEC15F0F2945AD0A0B8A1A804D090EC07
:101CC00015F0A19853D0A0B6A1A604D091EC15F0C0
:101CD000A1964CD09DB69EA604D003EC0DF09E9626
:101CE00045D09DB89EA804D0DEEC14F09E983ED05E
:101CF0009DBA9EAA04D07BEC15F09E9A37D09DB079
:101D00009EA004D08AEC15F09E9030D0F2B6F2A0DE
:101D100006D08CEC15F081CF15F0F29027D0F2B8F8
:101D2000F2A204D08FEC15F0F29220D0F0B6F0A021
:101D300004D08EEC15F0F09019D0F0B8F0A204D0D9
:101D40008DEC15F0F09212D0A0B0A1A002D0A1901D
:101D50000DD0A0B2A1A204D0C7EC14F0A19206D07D
:101D60009DB29EA203D089EC15F09E9214C04DF056
:101D700013C04CF012C04BF011C04AF010C0F5FF78
:101D80000FC0F8FF0EC0F7FF0DC0F6FF0CC0F4FF48
:101D90000BC0F3FF0AC0DAFF09C0D9FF08C0E2FF99
:101DA00007C0E1FF06C0EAFF05C0E9FF04C0FBFF72
:101DB00003C0FAFF4A9211006FC071F00001726B0C
:101DC000736B00016E350001713701E37281000110
:101DD000715100017B6F00017B51D8A40AD0000E25
:101DE00000016D6F000E6E6F000E6F6F000E706F52
:101DF0001200170E0001716F6DC072F06EC073F0AB
:101E00006FC074F0000171290001756F05D00001E9
:101E1000D8907433733372330001752FF8D70001F3
:101E200072510001766F00016E8FFF0E00016D1779
:101E3000FF0E00016E17000E00016F1700016D51BB
:101E40000001776F00016E510001786F00016F5142
:101E50000001796F00017A6B8E0E00017B5F00013B
:101E60007BAF1AD000017B51800A8F0FD8B00AD007
:101E7000000E00016D6F000E6E6F000E6F6F000E92
:101E8000706F12000001D8907A337933783377334A
:101E900000017B3FF7D71BD0170E00017B6512D0E6
:101EA000000E00016D6F000E6E6F000E6F6F000E62
:101EB000706F12000001D8907737783779377A370A
:101EC00000017B0700017B510001D8A4F3D700017A
:101ED00076510001D8B409D000017A1F791F781F0C
:101EE000776D000E782379237A2377C06DF078C060
:101EF0006EF079C06FF07AC070F0120018C01CF05C
:101F00001D6A1E6A17341C3601E31D801C50246EA6
:101F10002450D8A409D0000E166E000E176E000EC5
:101F2000186E000E196E12001BC01CF01D6A1E6A8E
:101F30001A341C3601E31D801C50236E2350D8A494
:101F400009D0000E166E000E176E000E186E000EF1
:101F5000196E1200178EFF0E1616FF0E1716000EC2
:101F600018161A8EFF0E1916FF0E1A16000E1B16E3
:101F7000000E1F6E000E206E000E216E000E226EEF
:101F80007F0E245E2350980F245E180E236ED89087
:101F90001F362036213622361950165C1A50175833
:101FA0001B501858D8A007D01950165E1A50175A4F
:101FB0001B50185A1F80D890163617361836232E05
:101FC000E6D724AE16D02450800A970FD8B009D097
:101FD000000E166E000E176E000E186E000E196EB3
:101FE0001200D8902232213220321F32243EF9D7FB
:101FF00015D0170E24640FD0000E166E000E176E4B
:10200000000E186E000E196E1200D8901F36203682
:102010002136223624062450D8A4F7D71FC016F044
:1020200020C017F021C018F022C019F01200183497
:102030001934216E2150D8A409D0000E166E000E5E
:10204000176E000E186E000E196E12001B341C3431
:10205000206E2050D8A409D0000E166E000E176E08
:10206000000E186E000E196E1200188EFF0E161656
:10207000FF0E1716FF0E1816000E19161B8EFF0EF8
:102080001916FF0E1A16FF0E1B16000E1C16000E58
:102090001C6E000E1D6E000E1E6E000E1F6E7F0E5B
:1020A000215E2050A00F215E200E206ED8901C369D
:1020B0001D361E361F361950165C1A5017581B5005
:1020C00018581C501958D8A009D01950165E1A502B
:1020D000175A1B50185A1C50195A1C80D890163683
:1020E000173618361936202EE1D721AE16D02150DA
:1020F000800A9F0FD8B009D0000E166E000E176E22
:10210000000E186E000E196E1200D8901F321E328B
:102110001D321C32213EF9D715D01F0E21640FD07D
:10212000000E166E000E176E000E186E000E196E61
:102130001200D8901C361D361E361F36210621503F
:10214000D8A4F7D71CC016F01DC017F01EC018F099
:102150001FC019F012002CC030F0316A326A2B34E3
:10216000303601E3318030500001606F0001605172
:10217000D8A407D0000E2A6E000E2B6E000E2C6E17
:1021800012002FC030F0316A326A2E34303601E34B
:10219000318030500001656F00016551D8A407D02F
:1021A000000E2A6E000E2B6E000E2C6E1200000127
:1021B00065517B0F000160272CC065F02F50000196
:1021C000651B800E000165172B8E2E8EFF0E2D16BF
:1021D000FF0E2E16000E2F16000E0001616F000E6E
:1021E0000001626F000E0001636F070E0001646F53
:1021F0002AA009D02D50000161272E500001622332
:102200002F5000016323D8902C322B322A32D890E1
:102210002D362E362F360001642FEAD7090E000125
:10222000646F2AA009D02D50000161272E500001B3
:1022300062232F5000016323D8902C322B322A3294
:102240000001D8906333623361330001642FE9D712
:1022500061C016F062C017F063C018F060C019F0DA
:1022600065C01AF0C1EC11F016C02AF017C02BF0AF
:1022700018C02CF012005EEC15F0000E0001AA6FE1
:1022800079EC14F00009D8A4FBD70001AA51CEECD8
:1022900013F079EC14F00009D8A4FBD73E0E1DEC26
:1022A00014F079EC14F00009D8A4FBD7010ECEECA1
:1022B00013F079EC14F00009D8A4FBD7230E1DEC21
:1022C00014F079EC14F00009D8A4FBD7020ECEEC80
:1022D00013F079EC14F00009D8A4FBD7260E1DECFE
:1022E00014F079EC14F00009D8A4FBD7030ECEEC5F
:1022F00013F079EC14F00009D8A4FBD73C0E1DECC8
:1023000014F0000EAFEC14F016C01EF017C01FF052
:102310001AEC15F01EC0BAF01FC0BBF020C0BCF014
:10232000C80E0001826F000E0001836F770E00015E
:10233000846F080E0001856FBAC086F0BBC087F0BD
:10234000BCC088F040EC04F079EC14F00009D8A48B
:10235000FBD7050ECEEC13F0020E346E110E336E69
:10236000B70EE82EFED7332EFCD7342EFAD700F066
:1023700079EC14F00009D8A4FBD7010E3CEC14F062
:102380007CD71950D8B405D0165017101810D8A4FF
:102390000CD0000E166E000E176E000E186E120096
:1023A000192AD890183217321632000E16141B6EE6
:1023B000000E17141C6EFE0E18141D6E1B501C1000
:1023C0001D10D8B40CD0ECD7192A010E1626000E19
:1023D0001722000E1822D890183217321632000E2B
:1023E00016141B6E000E17141C6EFF0E18141D6EB3
:1023F0001B501C101D10D8B406D0E6D71906D89073
:1024000016361736183617BE03D0020E1960F6D7E7
:1024100019A0179ED8901932195018121A50D8A422
:10242000188E16C016F017C017F018C018F012005A
:102430001A6EF00E8316F00E9516959A9598959C47
:102440008C9A8C988C9C67EC15F0300E3CEC14F058
:10245000050E53EC15F0300E3CEC14F0010E53EC6D
:1024600015F0320E3CEC14F079EC14F00009D8A40D
:10247000FBD779EC14F00009D8A4FBD71A503CEC38
:1024800014F079EC14F00009D8A4FBD7080E3CEC4A
:1024900014F079EC14F00009D8A4FBD70F0E3CEC33
:1024A00014F079EC14F00009D8A4FBD7010E3CEC31
:1024B00014F079EC14F00009D8A4FBD7040E3CEC1E
:1024C00014F079EC14F00009D8A4FBD7800ECEEC00
:1024D00013F0120018AE16D016C01CF017C01DF075
:1024E00018C01EF01C1E1D1E1E1E1C2A000E1D22C2
:1024F0001E22000E1C24166E000E1D20176E800E6C
:102500001E20186E1BAE16D019C01CF01AC01DF08C
:102510001BC01EF01C1E1D1E1E1E1C2A000E1D228E
:102520001E22000E1C24196E000E1D201A6E800E35
:102530001E201B6E000E161A000E171A800E181A97
:10254000000E191A000E1A1A800E1B1A1950165C6A
:102550001A5017581B501858D8B002D0D8901200F3
:10256000D8801200000E216E1FAE06D01E6C1F1EFA
:10257000D8B01F2A010E216E1DAE06D01C6C1D1E88
:10258000D8B01D2A010E211A000E236E000E226EF5
:102590001E501F10D8B41CD0010E206E04D0D8904D
:1025A0001E361F36202A1FAEFAD7D8902236233681
:1025B0001E501C5C1F501D58D8A005D01E501C5E1C
:1025C0001F501D5A2280D8901F321E32202EEDD768
:1025D0002150D8B404D0226C231ED8B0232A22C0A4
:1025E0001CF023C01DF01200000E1E6E000E1F6EA8
:1025F000000E206E000E216E1A501B101C101D10B4
:10260000D8B42AD0010E226E06D0D8901A361B36C6
:102610001C361D36222A1DAEF8D7D8901E361F361E
:10262000203621361A50165C1B5017581C5018586B
:102630001D501958D8A009D01A50165E1B50175AB1
:102640001C50185A1D50195A1E80D8901D321C3229
:102650001B321A32222EE1D71EC016F01FC017F00F
:1026600020C018F021C019F01200000E1B6E17AE2A
:1026700006D0166C171ED8B0172A010E1B6E19AEA5
:1026800004D0186C191ED8B0192A18501910D8B4D3
:1026900018D0010E1A6E04D0D890183619361A2A9E
:1026A00019AEFAD71850165C19501758D8A004D094
:1026B0001850165E1950175AD890193218321A2E1F
:1026C000F1D71B50D8B404D0166C171ED8B0172AF7
:1026D00016C016F017C017F012001A501B101C106D
:1026E0001D10D8B424D0010E1E6E06D0D8901A3614
:1026F0001B361C361D361E2A1DAEF8D71A50165C26
:102700001B5017581C5018581D501958D8A008D0E5
:102710001A50165E1B50175A1C50185A1D50195A41
:10272000D8901D321C321B321A321E2EE7D716C02B
:1027300016F017C017F018C018F019C019F01200E1
:102740008E0E266E06D0D890213220321F321E32D5
:10275000262A000E1E14226E000E1F14236E000E79
:102760002014246EFF0E2114256E225023102410F5
:102770002510D8A4E8D71EC016F01FC017F020C03F
:1027800018F026C019F0000E1A6EC1EC11F016C038
:102790001EF017C01FF018C020F01200196EF00EC6
:1027A0009516F00E83161950166E176A168E040EC3
:1027B000186E173417321632182EFBD716500F0B1F
:1027C00083128C9A8C9880EC15F08C8C80EC15F030
:1027D0008C9CF00E831619500F0B831280EC15F0B1
:1027E0008C8C80EC15F08C9C0F0E95121200000161
:1027F0007F510001801100018111D8B409D0000E71
:1028000000017F1B000E0001801B800E0001811B58
:102810007CC070F07DC071F07EC072F07FC073F03C
:1028200080C074F081C075F0A2EC0AF070C07CF03A
:1028300071C07DF072C07EF01200166EF00E95161B
:10284000F00E831616380F0B0F0B83128C888C9AA0
:1028500080EC15F08C8C80EC15F08C9CF00E8316BF
:1028600016500F0B831280EC15F08C8C80EC15F059
:102870008C9C0F0E95121200166EF00E9516F00E2F
:10288000831616380F0B0F0B83128C9A8C9880ECE2
:1028900015F08C8C80EC15F08C9CF00E8316165085
:1028A0000F0B831280EC15F08C8C80EC15F08C9C57
:1028B0000F0E95121200959E8C8E280E18EC12F0B9
:1028C00079EC14F00009D8A4FBD70F0E3CEC14F0FF
:1028D00079EC14F00009D8A4FBD7060E3CEC14F0F8
:1028E00079EC14F00009D8A4FBD7000ECEEC13F05D
:1028F00012008C8A8C9880EC15F08C8C80EC15F092
:1029000083A60AD08C9C80EC15F08C8C80EC15F0A2
:102910008C9C8C9A010E12008C9C80EC15F08C8C97
:1029200080EC15F08C9C8C9A000E120001EE00F0E9
:10293000320EEE6AE806FDE100EEABF0390EEE6A0B
:10294000E806FDE100EE35F0150EEE6AE806FDE161
:102950004A904A92000EF86E00013BEF11F01A6E99
:102960001AC018F018461846C2501818C30B181889
:10297000C26EC280C282C2B2FED7C450196E186A3B
:10298000C3501824166E000E1920176E1200365010
:10299000B36E35C0B2FF0001C1510001C211D8B4FD
:1029A000120001D8120005000001FA6EC151FD6E3F
:1029B000C251FE6EF850FF6EFA501200080E4460CD
:1029C00012D04550010DAB0EF324D96E000EF42049
:1029D000DA6EDF50AD6E452A070E456402D0000E58
:1029E000456E442A12009D98120024502602F3CF0F
:1029F00028F0F4CF29F024502702F350292625503F
:102A00002602F350292628C024F029C025F0120000
:102A1000165017101810D8B406D0000E161A000E53
:102A2000171A800E181A16C016F017C017F018C023
:102A300018F012001EC016F01FC017F0186A8E0E94
:102A4000196E000E1A6EC1EC11F016C01EF017C000
:102A50001FF018C020F01200186E000E176E3A0E0C
:102A6000186005D02F0E186402D0010E176E17C023
:102A700016F016301200010EC26ECF0EC116BA0E3D
:102A8000C06E000EC36E000EC46E9E9C1200060E39
:102A90003B26000E3C22402E03D0040E416E120055
:102AA000010E416E1200176E0D0E166EFC0EE82E12
:102AB000FED7162EFCD7172EF7D7120070EC15F0A4
:102AC00076EC15F05BEC14F03BEC15F01200750E93
:102AD000166EE10EE82EFED7162EFCD700F012007F
:102AE0009280C150F00B0D09C16E1200600ED36EC2
:102AF000000E9B6E1200ABA21200AB9EAB8E1200BA
:102B0000060EE82EFED71200C584000E416E12009C
:102B10001200120012001200120012001200120025
:062B200012001200120079
:020000040020DA
:08000000FFFFFFFFFFFFFFFF00
:020000040030CA
:0E000000340E181EFF8080FF0FC00FE00F406F
:00000001FF
